:020000040800F2
:1000000068A90420017600081B700108ED7500083E
:10001000ED750008ED750008ED750008ED75000838
:100020000000000000000000000000000177000850
:10003000ED750008000000006D76000811EF000863
:100040001579000815790008157900081579000858
:100050001579000815790008157900081579000848
:100060001579000815790008157900081579000838
:100070001579000815790008157900081579000828
:100080001579000815790008157900081579000818
:100090001579000815790008157900081579000808
:1000A00015790008157900081579000815790008F8
:1000B00015790008157900081579000815790008E8
:1000C00015790008157900081579000815790008D8
:1000D00015790008157900081579000815790008C8
:1000E00015790008157900081579000815790008B8
:1000F00015790008157900081579000815790008A8
:100100001579000815790008157900081579000897
:100110001579000815790008157900081579000887
:100120001579000815790008157900081579000877
:100130001579000815790008157900081579000867
:100140001579000815790008157900081579000857
:100150001579000815790008157900081579000847
:100160001579000815790008157900081579000837
:100170001579000815790008157900081579000827
:100180001579000815790008157900081579000817
:100190001579000815790008157900081579000807
:1001A00015790008157900081579000815790008F7
:1001B00015790008157900081579000815790008E7
:1001C00015790008157900081579000815790008D7
:1001D00015790008157900081579000815790008C7
:1001E00015790008157900081579000815790008B7
:1001F00015790008157900081579000815790008A7
:100200001579000815790008157900081579000896
:100210001579000815790008157900081579000886
:100220001579000815790008157900081579000876
:040230001579000834
:10023800002902D0B0FBF1F0704708B14FF0FF3051
:1002480000F01EB80029F8D00246B0FBF1F000FB20
:1002580011217047002902D090FBF1F07047002867
:10026800C8BF6FF00040B8BF4FF0004000F008B8BA
:100278000029F4D0024690FBF1F000FB11217047F1
:10028800704700BF81F0004102E000BF83F00043E7
:1002980030B54FEA41044FEA430594EA050F08BF19
:1002A80090EA020F1FBF54EA000C55EA020C7FEADD
:1002B800645C7FEA655C00F0E2804FEA5454D4EB5A
:1002C8005555B8BF6D420CDD2C4480EA020281EA24
:1002D800030382EA000083EA010180EA020281EA5C
:1002E8000303362D88BF30BD11F0004F4FEA0131AE
:1002F8004FF4801C4CEA113102D0404261EB4101BD
:1003080013F0004F4FEA03334CEA133302D0524242
:1003180063EB430394EA050F00F0A780A4F10104FE
:10032800D5F1200E0DDB02FA0EFC22FA05F2801838
:1003380041F1000103FA0EF2801843FA05F359411E
:100348000EE0A5F120050EF1200E012A03FA0EFC9D
:1003580028BF4CF0020C43FA05F3C01851EBE371C7
:1003680001F0004507D54FF0000EDCF1000C7EEBE4
:1003780000006EEB0101B1F5801F1BD3B1F5001F22
:100388000CD349085FEA30004FEA3C0C04F1010441
:100398004FEA445212F5800F80F09A80BCF1004F6A
:1003A80008BF5FEA500C50F1000041EB045141EAEC
:1003B800050130BD5FEA4C0C404141EB0101013CB5
:1003C80028BFB1F5801FE9D291F0000F04BF0146A4
:1003D8000020B1FA81F308BF2033A3F10B03B3F176
:1003E80020020CDA0C3208DD02F1140CC2F10C0206
:1003F80001FA0CF021FA02F10CE002F11402D8BF64
:10040800C2F1200C01FA02F120FA0CFCDCBF41EA2F
:100418000C019040E41AA2BF01EB0451294330BDFE
:100428006FEA04041F3C1CDA0C340EDC04F11404DB
:10043800C4F1200220FA04F001FA02F340EA0300B2
:1004480021FA04F345EA030130BDC4F10C04C4F1F8
:10045800200220FA02F001FA04F340EA03002946D8
:1004680030BD21FA04F0294630BD94F0000F83F422
:10047800801306BF81F480110134013D4EE77FEA05
:10048800645C18BF7FEA655C29D094EA050F08BF51
:1004980090EA020F05D054EA000C04BF1946104632
:1004A80030BD91EA030F1EBF0021002030BD5FEA76
:1004B800545C05D14000494128BF41F0004130BD9E
:1004C80014F580043CBF01F5801130BD01F00045F2
:1004D80045F0FE4141F470014FF0000030BD7FEA65
:1004E800645C1ABF194610467FEA655C1CBF0B4660
:1004F800024650EA013406BF52EA033591EA030F77
:1005080041F4002130BD00BF90F0000F04BF00216E
:10051800704730B54FF4806404F132044FF00005A1
:100528004FF0000150E700BF90F0000F04BF00211A
:10053800704730B54FF4806404F1320410F0004580
:1005480048BF40424FF000013EE700BF42004FEA7B
:10055800E2014FEA31014FEA02701FBF12F07F43F8
:1005680093F07F4F81F06051704732F07F4208BFAF
:10057800704793F07F4F04BF41F40021704730B5B6
:100588004FF4607401F0004521F000411CE700BF02
:1005980050EA010208BF704730B54FF000050AE085
:1005A80050EA010208BF704730B511F0004502D586
:1005B800404261EB41014FF4806404F132045FEA88
:1005C800915C3FF4D8AE4FF003025FEADC0C18BF31
:1005D80003325FEADC0C18BF033202EBDC02C2F123
:1005E800200300FA03FC20FA02F001FA03FE40EAB5
:1005F8000E0021FA02F11444BDE600BF70B54FF0B9
:10060800FF0C4CF4E06C1CEA11541DBF1CEA135596
:1006180094EA0C0F95EA0C0F00F0DEF82C4481EAFE
:10062800030621EA4C5123EA4C5350EA013518BF1E
:1006380052EA033541F4801143F4801338D0A0FB0B
:1006480002CE4FF00005E1FB02E506F00042E0FBB8
:1006580003E54FF00006E1FB03569CF0000F18BFBE
:100668004EF0010EA4F1FF04B6F5007F64F5407466
:1006780004D25FEA4E0E6D4146EB060642EAC621F9
:1006880041EA55514FEAC52040EA5E504FEACE2E66
:10069800B4F1FD0C88BFBCF5E06F1ED8BEF1004F69
:1006A80008BF5FEA500E50F1000041EB045170BDE5
:1006B80006F0004646EA010140EA020081EA030129
:1006C800B4EB5C04C2BFD4EB0C0541EA045170BD25
:1006D80041F480114FF0000E013C00F3AB8014F19F
:1006E800360FDEBF002001F0004170BDC4F10004E8
:1006F800203C35DA0C341BDC04F11404C4F1200569
:1007080000FA05F320FA04F001FA05F240EA0200C3
:1007180001F0004221F0004110EBD37021FA04F6F9
:1007280042EB06015EEA430E08BF20EAD37070BDB3
:10073800C4F10C04C4F1200500FA04F320FA05F012
:1007480001FA04F240EA020001F0004110EBD37014
:1007580041F100015EEA430E08BF20EAD37070BD84
:10076800C4F1200500FA05F24EEA020E20FA04F35D
:1007780001FA05F243EA020321FA04F001F000410C
:1007880021FA04F220EA020000EBD3705EEA430E7D
:1007980008BF20EAD37070BD94F0000F0FD101F0AC
:1007A8000046400041EB010111F4801F08BF013CE5
:1007B800F7D041EA060195F0000F18BF704703F023
:1007C8000046520043EB030313F4801F08BF013DAA
:1007D800F7D043EA0603704794EA0C0F0CEA135566
:1007E80018BF95EA0C0F0CD050EA410618BF52EA20
:1007F8004306D1D181EA030101F000414FF0000026
:1008080070BD50EA410606BF1046194652EA430633
:1008180019D094EA0C0F02D150EA013613D195EAA7
:100828000C0F05D152EA03361CBF104619460AD1EF
:1008380081EA030101F0004141F0FE4141F47001F9
:100848004FF0000070BD41F0FE4141F4780170BDE9
:1008580070B54FF0FF0C4CF4E06C1CEA11541DBF4E
:100868001CEA135594EA0C0F95EA0C0F00F0A7F850
:10087800A4EB050481EA030E52EA03354FEA01317D
:1008880000F088804FEA03334FF0805545EA131390
:1008980043EA12634FEA022245EA111545EA106558
:1008A8004FEA00260EF000419D4208BF964244F1EF
:1008B800FD0404F5407402D25B084FEA3202B61A0E
:1008C80065EB03055B084FEA32024FF480104FF4E2
:1008D800002CB6EB020E75EB030E22BFB61A754656
:1008E80040EA0C005B084FEA3202B6EB020E75EBE9
:1008F800030E22BFB61A754640EA5C005B084FEA51
:100908003202B6EB020E75EB030E22BFB61A75461D
:1009180040EA9C005B084FEA3202B6EB020E75EB28
:10092800030E22BFB61A754640EADC0055EA060EE9
:1009380018D04FEA051545EA16754FEA06164FEA2C
:10094800C30343EA52734FEAC2025FEA1C1CC0D1D8
:1009580011F4801F0BD141EA00014FF000004FF065
:10096800004CB6E711F4801F04BF01430020B4F126
:10097800FD0C88BFBCF5E06F3FF6AFAEB5EB030CDE
:1009880004BFB6EB020C5FEA500C50F1000041EBDB
:10099800045170BD0EF0004E4EEA113114EB5C04A8
:1009A800C2BFD4EB0C0541EA045170BD41F480117B
:1009B8004FF0000E013C90E645EA060E8DE60CEA83
:1009C800135594EA0C0F08BF95EA0C0F3FF43BAFA0
:1009D80094EA0C0F0AD150EA01347FF434AF95EA57
:1009E8000C0F7FF425AF104619462CE795EA0C0F3B
:1009F80006D152EA03353FF4FDAE1046194622E708
:100A080050EA410618BF52EA43067FF4C5AE50EAE1
:100A180041047FF40DAF52EA43057FF4EBAE12E7D1
:100A28004FF0FF3C06E000BF4FF0010C02E000BFB2
:100A38004FF0010C4DF804CD4FEA410C7FEA6C5C95
:100A48004FEA430C18BF7FEA6C5C1BD001B050EA38
:100A5800410C0CBF52EA430C91EA030F02BF90EA23
:100A6800020F0020704710F1000F91EA030F58BFE2
:100A7800994208BF90422CBFD8176FEAE37040F044
:100A8800010070474FEA410C7FEA6C5C02D150EAE2
:100A9800013C07D14FEA430C7FEA6C5CD6D152EA9D
:100AA800033CD3D05DF8040B704700BF8446104662
:100AB80062468C461946634600E000BF01B5FFF761
:100AC800B7FF002848BF10F1000F01BD4DF808ED31
:100AD800FFF7F4FF0CBF012000205DF808FB00BF02
:100AE8004DF808EDFFF7EAFF34BF012000205DF85C
:100AF80008FB00BF4DF808EDFFF7E0FF94BF0120A9
:100B080000205DF808FB00BF4DF808EDFFF7CEFFA9
:100B180094BF012000205DF808FB00BF4DF808EDE8
:100B2800FFF7C4FF34BF012000205DF808FB00BFB9
:100B38004FEA410C7FEA6C5C02D150EA013C0AD1D1
:100B48004FEA430C7FEA6C5C02D152EA033C02D1C3
:100B58004FF0000070474FF0010070474FEA410224
:100B680012F5001215D211D56FF47873B3EB6252F7
:100B780012D94FEAC12343F0004343EA505311F01E
:100B8800004F23FA02F018BF404270474FF00000B0
:100B9800704750EA013005D111F0004008BF6FF0EE
:100BA800004070474FF00000704700BF4A0011D264
:100BB80012F5001211D20DD56FF47873B3EB6252AF
:100BC8000ED44FEAC12343F0004343EA505323FABB
:100BD80002F070474FF00000704750EA013002D130
:100BE8004FF0FF3070474FF0000070474FEA410266
:100BF800B2F1E04324BFB3F5001CDCF1FE5C0DD973
:100C080001F0004C4FEAC0024CEA5070B2F1004FBC
:100C180040EB830008BF20F00100704711F0804FBF
:100C280021D113F13872BCBF01F00040704741F484
:100C380080114FEA5252C2F11802C2F1200C10FA88
:100C48000CF320FA02F018BF40F001004FEAC1236C
:100C58004FEAD32303FA0CFC40EA0C0023FA02F310
:100C68004FEA4303CCE77FEA625307D150EA0133E6
:100C78001EBF4FF0FE4040F44000704701F00040B6
:100C880040F0FE4040F40000704700BF80F0004094
:100C980002E000BF81F0004142001FBF5FEA41034C
:100CA80092EA030F7FEA226C7FEA236C6AD04FEA4C
:100CB8001262D2EB1363C1BFD21841404840414091
:100CC800B8BF5B42192B88BF704710F0004F40F443
:100CD800000020F07F4018BF404211F0004F41F45F
:100CE800000121F07F4118BF494292EA030F3FD02B
:100CF800A2F1010241FA03FC10EB0C00C3F120033E
:100D080001FA03F100F0004302D5494260EB4000CC
:100D1800B0F5000F13D3B0F1807F06D340084FEA37
:100D2800310102F10102FE2A51D2B1F1004F40EB2C
:100D3800C25008BF20F0010040EA03007047490094
:100D480040EB0000013A28BFB0F5000FEDD2B0FA31
:100D580080FCACF1080CB2EB0C0200FA0CF0AABF54
:100D680000EBC25052421843BCBFD04018437047F2
:100D780092F0000F81F4000106BF80F400000132F8
:100D8800013BB5E74FEA41037FEA226C18BF7FEACF
:100D9800236C21D092EA030F04D092F0000F08BF11
:100DA8000846704790EA010F1CBF0020704712F0F8
:100DB8007F4F04D1400028BF40F00040704712F137
:100DC80000723CBF00F50000704700F0004343F09C
:100DD800FE4040F4000070477FEA226216BF0846D2
:100DE8007FEA23630146420206BF5FEA412390EA95
:100DF800010F40F4800070474FF0000304E000BF8B
:100E080010F0004348BF40425FEA000C08BF70473B
:100E180043F0964301464FF000001CE050EA0102FF
:100E280008BF70474FF000030AE000BF50EA010214
:100E380008BF704711F0004302D5404261EB410101
:100E48005FEA010C02BF84460146002043F0B64326
:100E580008BFA3F18053A3F50003BCFA8CF2083A4B
:100E6800A3EBC25310DB01FA02FC634400FA02FC54
:100E7800C2F12002BCF1004F20FA02F243EB02005B
:100E880008BF20F00100704702F1200201FA02FCBD
:100E9800C2F1200250EA4C0021FA02F243EB0200B0
:100EA80008BF20EADC7070474FF0FF3C06E000BF47
:100EB8004FF0010C02E000BF4FF0010C4DF804CDDB
:100EC8004FEA40024FEA41037FEA226C18BF7FEAEB
:100ED800236C11D001B052EA530C18BF90EA010FED
:100EE80058BFB2EB030088BFC81738BF6FEAE1707C
:100EF80018BF40F0010070477FEA226C02D15FEA18
:100F0800402C05D17FEA236CE4D15FEA412CE1D083
:100F18005DF8040B704700BF844608466146FFE74A
:100F28000FB5FFF7C9FF002848BF10F1000F0FBD2C
:100F38004DF808EDFFF7F4FF0CBF012000205DF825
:100F480008FB00BF4DF808EDFFF7EAFF34BF0120AA
:100F580000205DF808FB00BF4DF808EDFFF7E0FF43
:100F680094BF012000205DF808FB00BF4DF808ED94
:100F7800FFF7D2FF94BF012000205DF808FB00BFF7
:100F88004DF808EDFFF7C8FF34BF012000205DF8D9
:100F980008FB00BF4FEA40024FEA41037FEA226C98
:100FA80002D15FEA402C08D17FEA236C02D15FEAC4
:100FB800412C02D14FF0000070474FF001007047FC
:100FC8007BB972B90029BEBF00204FF0004106E08E
:100FD80008BF00281CBF6FF000414FF0FF30FFF73B
:100FE8004FB9ADF1080C6DE904CE002909DB002BDF
:100FF8001ADB00F0AFF8DDF804E0DDE9022304B005
:101008007047404261EB4101002B1BDB00F0A2F866
:10101800DDF804E0DDE9022304B0404261EB410160
:10102800524263EB43037047524263EB430300F0C1
:1010380091F8DDF804E0DDE9022304B0404261EBF9
:1010480041017047524263EB430300F083F8DDF837
:1010580004E0DDE9022304B0524263EB4303704726
:1010680053B94AB9002908BF00281CBF4FF0FF3107
:101078004FF0FF30FFF704B9ADF1080C6DE904CE6D
:1010880000F068F8DDF804E0DDE9022304B07047F9
:10109800D0B500220B4B06460F46FFF7AFFAFFF715
:1010A80085FD0446FFF730FA0022074BFFF7A6FA42
:1010B80002460B4630463946FFF7E8F8FFF776FD5B
:1010C8002146D0BD0000F03D0000F04110F8012B92
:1010D80011F8013B012A28BF9A42F7D0D01A70476D
:1010E800034611F8012B03F8012B002AF9D17047A8
:1010F800034613F8012B002AFBD1181A0138704750
:10110800430803F05533C01A00F03333800800F069
:10111800333018444FF0013300EB101000F00F305B
:101128005843000E704738B50022002304460D4688
:10113800FFF7D6FC28B920462946BDE83840FFF716
:10114800A7BF204605F10041FFF7A2FF404261EB2F
:10115800410138BD2DE9F04786468C460846089E71
:10116800154674461946002B40F0C1808542B2FAF4
:1011780082F245D94AB1C2F1200300FA02FC954037
:1011880094402EFA03F343EA0C0C4FEA154EA8B22A
:10119800230CBCFBFEF80EFB18CC08FB00F943EA55
:1011A8000C43994528D9EB1808F1FF3704D2994523
:1011B80002D9A8F102072B44A3EB0903A4B2B3FB9D
:1011C800FEFC0EFB1C330CFB00F044EA0344A04277
:1011D80014D92C190CF1FF3304D2A04202D9ACF176
:1011E80002032C44241A43EA07401EB1D4400023CA
:1011F80034607360BDE8F0874746DDE76346F1E792
:1012080092BB431B01214FEA154EAFB2200CB3FB32
:10121800FEFC0EFB1C330CFB07F840EA0343984521
:1012280061D9EB180CF1FF3004D2984502D9ACF122
:1012380002002B44A3EB0803A4B2B3FBFEFC0EFB95
:101248001C330CFB07F744EA0344A7424DD92C1979
:101258000CF1FF3304D2A74202D9ACF102032C44AB
:10126800E41B43EA0040C0E7C2F1200395409440E4
:1012780020FA03F12EFA03F34FEA154E9040AFB26D
:101288000343B1FBFEFC0EFB1C10190C0CFB07F80A
:1012980041EA0041884522D969180CF1FF3004D28F
:1012A800884502D9ACF102002944A1EB08019BB2A0
:1012B800B1FBFEFC0EFB1C110CFB07F743EA0143D4
:1012C8009F420ED9EB180CF1FF3104D29F4202D98C
:1012D800ACF102012B44DB1B41EA004193E7604675
:1012E800E3E76146F7E76046A4E76346B8E7834269
:1012F80006D916B9002108467CE7C6E900E0F9E7F7
:10130800B3FA83F78FB9834201D3724508D8BEEB8D
:10131800020460EB030301209C461EB9002169E723
:101328003846FAE7C6E9004CF8E7C7F1200CBB409D
:101338000EFA07F522FA0CF42EFA0CF1BA401C4307
:1013480020FA0CF3B8404FEA144901431FFA84FE0F
:10135800B3FBF9F809FB18300B0C08FB0EFA43EA4B
:1013680000439A4540D9E31808F1FF3004D29A4562
:1013780002D9A8F102002344A3EB0A0389B2B3FB04
:10138800F9F809FB183308FB0EFE41EA03418E45C4
:101398002CD9611808F1FF3304D28E4502D9A8F17F
:1013A8000203214443EA0040A1EB0E01A0FB02988E
:1013B8004145CE46434602D306D14D4504D20138B5
:1013C800B9EB020E68EB0403002EA7D0B5EB0E02B2
:1013D80061EB030101FA0CFC22FA07F3F9404CEA2D
:1013E8000303C6E9003199E74046C5E74346D9E714
:1013F8002DE9F04D012814461E468AB001F004017B
:1014080002D0042840F0B3806368002BC0F2AF809C
:101418005B4FA368BB4200F2AA8002AD002976D0D8
:10142800294604F0DFFCDDE90232B2F1004F08BFC3
:10143800002B0AD05B4262EB4202CDE90232049BE8
:1014480028465B42049304F06DFC2146284615F0BB
:1014580018F9D4E900324B4999424FF004039341FB
:101468002BDADDE90203022873F1000254DB42F2B1
:1014780010720138A0FB020143F1FF3302FB031194
:1014880018F0CFFE3CA3D3E900233F4C80FB04486F
:1014980020464146FFF7E4FD0023CDE906013A4A1C
:1014A80020464146FFF7DCFD00230892012228462A
:1014B80006A9CDE9022315F0E4F8DDE90248B8F100
:1014C800000F4FDB54EA0803049828D188BB224652
:1014D8004346684619F0BFF8DDE900AB41462046AF
:1014E80018F09FFE5B465246684619F0D9F8DDE9C8
:1014F800004854EA0803F1D12EB100230022C6E9BE
:1015080000230023B36000200AB0BDE8F08D94E802
:101518000F0085E80F009CE700200146B0E74FF078
:10152800FF336FF00042904508BF9C4201D1B8429A
:101538001BD042F21073A4FB0345144A03FB08585E
:10154800C1170023FFF78CFD4FF0FF326FF0004307
:10155800241848EB0108A24273EB0801B7D21446DD
:101568009846B4E70024A046B1E71C46FBE76FF0B5
:101578001500C9E7AFF3008000CA9A3B00000000DD
:10158800FFC99A3B08FA824B40420F00A08601002F
:101598002DE9F84F8146884600232DED028B19F876
:1015A80003605A1C202E00F07A81A6F10901042953
:1015B80040F275812B2E154632D02D2E35D00424BD
:1015C80046F02003692B4DD06E2B5DD000224FF0E2
:1015D8000A0A944613461046114614F4006E59D070
:1015E80046F02007A7F1610BBBF1050F52D8573F12
:1015F800FFB2BA4553DC46F0200604F08007782E87
:1016080040F0DC80002F00F0D98050EA010A40F059
:10161800D58044F4006E4FF0100A1FFA8EFE4DE09C
:10162800042419F802609D1CCAE74424F9E719F854
:101638000520681C42F020028A4229D0A24A93421F
:1016480017D000259FED9A8BB8F1000F02D04D44BA
:10165800C8F80050B0EE480AF0EE680ABDEC028BFC
:10166800BDE8F88F9FED948B984B13F8011B002968
:10167800DDD16306E8D518EE901A18EE102A01F1AC
:10168800004343EC182BDFE79FED8D8B904BECE785
:101698000546EAE7A6F13007FFB257452DDA44F0D0
:1016A800800E14F4807F04F400761FFA8EFE0AD0B0
:1016B800002F18BF43F0010306B9013219F805607D
:1016C8007446013589E706B1013AAAFB00060AFB10
:1016D8000161381841F1000150EA0106EED0BAF173
:1016E8000A0F0CF1010C0CBF10260F26B445E5DDDE
:1016F80044F4C07E1FFA8EFEE0E7FE2F7FF47BAF36
:10170800A70558D514F080069BD050EA010605F1CC
:10171800FF3500F0C180260540F1A9803632B1F5C9
:10172800800FC0F088806B4FB1F5000F80F0888083
:10173800BA42C0F285800343084603F00306032E2D
:1017480004D003F00606062E40F08380043341F1EE
:101758000000B0F5000F7CD30132B2F5806F80F243
:10176800988000234FF4801102F2FF3221F4801197
:101778001E4641EA025747EC186BB0EE480AF0EEF5
:10178800680A13F0FBFD0138022804D8524B2222C4
:1017980019F0F2FE1A50B0EE480AF0EE680A13F09B
:1017A800EDFD013802283FF664AF4B4B222219F0B9
:1017B800E3FE1A505DE744F4007E9BE71FFA87FAC0
:1017C800002F6ED0BEF1000F0CBF65277027BE42F8
:1017D8009BD119F805606F1C2B2E04D02D2E24D117
:1017E80044F48064A4B219F80760A6F13007092F01
:1017F8008BD8AF1C3D4640F2D34A00274FF00A0B66
:101808005745DCBF303E0BFB076719F8056001350B
:10181800A6F1300EBEF1090FF2D9660548BF7F4226
:10182800260548BF92003A446FE7A6F1300EBEF194
:10183800090FDFD969E7001802F1FF3249416EE765
:10184800460800F00100013246EAC17649083043F3
:101858006AE7B2F5806F1CDA9B08B0F5800F4FEA93
:10186800900143EA8073BFF47FAF002280E70CEB5E
:10187800020313F5A27F09DDB3F59B7F09DA00F0B7
:101888002FF8B0EE408AF0EE608A84E79FED088B6F
:1018980081E79FED098B7EE79FED058BE9E613460F
:1018A8007DE69FED038B5546CEE600BFAFF3008083
:1018B8000000000000000000000000000000F07FB1
:1018C800000000000000F87F366503083365030850
:1018D8003065030802FCFFFF140000000000000050
:1018E8002DE9FF47804616460F46002900F0A280E2
:1018F800B1FA81F4341B002E04F10A04C0F2A2806C
:10190800304612F06DFC0444304612F06FFCA4EB34
:10191800060905466946304612F090FCA9EB050316
:101928006A4640467D33394619F0C5FAA6428246D2
:101938000D4600F38380B9F13F0F00F381804FF02B
:10194800FF33A9F12000C9F1200103FA00F003FADE
:1019580009F223FA01F103FA09F3024328EA03031F
:101968000A4327EA020213430CBF01200020002D7E
:1019780000F08A80B5FA85F3E31A40F2FE7203F2AA
:101988003E43934200F38980002B23EAE376D4BFD9
:1019980001223246121BA2F23341A2F23447A2F2CC
:1019A8005344C1F1200C2AFA01F325FA04F4C7F1D3
:1019B800200E05FA0CFC25FA01F105FA0EFE43EAA1
:1019C8000C03A2F2544CA2F2544223432AFA07F41D
:1019D80025FA0CFC44EA0E0444EA0C04C7F1200C76
:1019E80014F0010F54D0A8B14FF0FF3000FA02F202
:1019F80000FA07F4144320FA0CF2B840144303F039
:101A080001022AEA000A25EA04054AEA020A5AEA11
:101A1800050A3DD0013341F10002C2F3130253EA33
:101A2800020138D0184642EA065141EC100B04B0C6
:101A3800BDE8F087B0FA80F420345BE7012096E730
:101A4800002094E7C6F10009484612F0CFFB241A9B
:101A5800484612F0CBFBA61B0546694648462E446D
:101A680012F05EFC6A46404606F17C03394619F0DE
:101A780022FA82460D464046394612F0C7FB814598
:101A88008CBF0020012072E7BAFA8AF3203373E78B
:101A9800C1F31302C6E70136C4E79FED010BC6E7A1
:101AA800000000000000F07F2DE9F84F55EC104BC6
:101AB80025F00043B8498B4215D903F1404303F59B
:101AC800801323430BD1002D00F3128296A3D3E990
:101AD800002397A1D1E90001FEF7DAFB91E0BDE808
:101AE800F84F02F039BCAD498B4200F28E80AC4A07
:101AF800934206D890A3D3E9002391A1D1E900012C
:101B0800EAE722462B4620462946FEF777FD064699
:101B18000F468DA3D3E90023FEF770FD8CA3D3E90C
:101B28000023FEF7B5FB32463B46FEF767FD8AA366
:101B3800D3E90023FEF7AAFB32463B46FEF75EFDDB
:101B480087A3D3E90023FEF7A3FB32463B46FEF703
:101B580055FD85A3D3E90023FEF798FB32463B46A3
:101B6800FEF74CFD82A3D3E90023FEF791FB324632
:101B78003B46FEF743FD80468946304639467EA3FC
:101B8800D3E90023FEF73AFD7DA3D3E90023FEF74E
:101B98007DFB32463B46FEF731FD7BA3D3E90023AC
:101BA800FEF776FB32463B46FEF728FD78A3D3E9DD
:101BB8000023FEF76BFB32463B46FEF71FFD002273
:101BC800784BFEF765FB02460B4640464946FEF752
:101BD8003FFE22462B46FEF711FD02460B4656A154
:101BE800D1E90001FEF752FB02460B462046294682
:101BF800FEF74CFB02460B4651A1D1E90001FEF766
:101C080045FB41EC100BBDE8F88F002D80F2CE802B
:101C18000022644B20462946FEF73AFB0022624B1D
:101C2800FEF7ECFC04460D4645EC104B12F0F4FBB5
:101C38002046294644A3D3E9002357EC106BFEF74E
:101C4800DDFC43A3D3E90023FEF722FB22462B4603
:101C5800FEF7D4FC40A3D3E90023FEF717FB224686
:101C68002B46FEF7CBFC3EA3D3E90023FEF710FB7F
:101C780022462B46FEF7C2FC3BA3D3E90023FEF71E
:101C880005FB22462B46FEF7B9FC39A3D3E900230E
:101C9800FEF7FEFA22462B46FEF7B0FC8046894640
:101CA8002046294634A3D3E90023FEF7A7FC34A332
:101CB800D3E90023FEF7EAFA22462B46FEF79EFCFC
:101CC80031A3D3E90023FEF7E3FA22462B46FEF7B9
:101CD80095FC2FA3D3E90023FEF7D8FA22462B461A
:101CE800FEF78CFC00222F4BFEF7D2FA02460B4679
:101CF80040464946FEF7ACFD32463B46FEF77EFCC1
:101D08000DA3D3E90023FEF7C1FA32463B46FEF79E
:101D1800BFFA02460B46FEF7BBFA02460B4604A181
:101D2800D1E900016BE700BF075C143326A6A13C8C
:101D3800182D4454FB210940075C143326A6913C16
:101D4800182D4454FB21F93F09F7FD0DE13D023FF1
:101D580088B20175E0EF493F3B8F68B52882A43F00
:101D68005544880E55C1C93F7D6FEB0312D6D43F49
:101D7800555555555555C53F82922EB1C5B8B33FF7
:101D880059018D1B6C06E63FC88A599CE52A00401C
:101D98004B2D8A1C273A0340FFFFEF3FFFFFDF3F31
:101DA8000000603C0000F03F0000E03F22462B4668
:101DB80000206749FEF76AFA0022664B0026FEF704
:101DC8001DFC04460D4645EC104B12F025FB204641
:101DD800294649A3D3E9002359EC108BFEF70EFCE2
:101DE80047A3D3E90023FEF753FA22462B46FEF712
:101DF80005FC45A3D3E90023FEF748FA22462B4603
:101E0800FEF7FCFB42A3D3E90023FEF741FA224682
:101E18002B46FEF7F3FB40A3D3E90023FEF736FA7F
:101E280022462B46FEF7EAFB3DA3D3E90023FEF743
:101E38002FFA22462B46FEF7E1FB82468B462046C8
:101E4800294639A3D3E90023FEF7D8FB38A3D3E901
:101E58000023FEF71BFA22462B46FEF7CFFB36A3DC
:101E6800D3E90023FEF714FA22462B46FEF7C6FBF9
:101E780033A3D3E90023FEF709FA22462B46FEF7DF
:101E8800BDFB0022324BFEF703FA02460B465046D2
:101E98005946FEF7DDFC42464B46FEF7AFFB32469D
:101EA80082468B464B4630464946FEF7A7FB02461C
:101EB8000B4620462946FEF7E9F904460D46324608
:101EC8004B4640464946FEF7E3F902460B46204694
:101ED8002946FEF7BDFC02460B4650465946FEF71A
:101EE800D7F932464B46FEF7D3F902460B46F3E5DF
:101EF8009FED150B87E600BF09F7FD0DE13D023F99
:101F080088B20175E0EF493F3B8F68B52882A43F4E
:101F18005544880E55C1C93F7D6FEB0312D6D43F97
:101F2800555555555555C53F82922EB1C5B8B33F45
:101F380059018D1B6C06E63FC88A599CE52A00406A
:101F48004B2D8A1C273A03400000000000000000C7
:101F58000000F03F0000E03F2DE9F04F55EC104B3A
:101F680025F00046C04B87B09E42019523D906F163
:101F7800404606F58016264318D120462946A0A3D8
:101F8800D3E90023FEF73AFB06460F4620462946CA
:101F98009DA3D3E90023FEF731FB02460B463046EA
:101FA8003946FEF775F904460D4618E007B0BDE856
:101FB800F04F02F0D1B9AD4B9E4200F28680B6F1E7
:101FC800795F11D22046294691A3D3E90023FEF771
:101FD8005FF90022A64BFEF7A1FD002875D045EC5D
:101FE800104B07B0BDE8F08F22462B462046294605
:101FF800FEF704FB06460F4687A3D3E90023FEF746
:10200800FDFA87A3D3E90023FEF742F932463B469F
:10201800FEF7F4FA84A3D3E90023FEF737F9324632
:102028003B46FEF7EBFA82A3D3E90023FEF730F92B
:1020380032463B46FEF7E2FA7FA3D3E90023FEF7D8
:1020480025F932463B46FEF7D9FA7DA3D3E90023AA
:10205800FEF71EF932463B46FEF7D0FA804689461F
:102068003046394678A3D3E90023FEF7C7FA78A3A8
:10207800D3E90023FEF70AF932463B46FEF7BEFADB
:1020880075A3D3E90023FEF703F932463B46FEF772
:10209800B5FA73A3D3E90023FEF7F8F832463B46B6
:1020A800FEF7ACFA0022724BFEF7F2F802460B4636
:1020B80040464946FEF7CCFB22462B46FEF79EFAE1
:1020C80002460B46204629466BE7224625F0004388
:1020D80000206749FEF7DAF80022664BFEF78EFA11
:1020E80004460D464CA3D3E90023FEF787FA4CA318
:1020F800D3E90023FEF7CCF822462B46FEF77EFAFA
:1021080049A3D3E90023FEF7C1F822462B46FEF780
:1021180075FA47A3D3E90023FEF7BAF822462B46FF
:10212800FEF76CFA44A3D3E90023FEF7AFF8224682
:102138002B46FEF763FA42A3D3E90023FEF7A8F87B
:1021480022462B46FEF75AFA3FA3D3E90023CDE9EE
:10215800020120462946FEF751FA3DA3D3E90023A0
:10216800FEF794F822462B46FEF748FA3AA3D3E93D
:102178000023FEF78DF822462B46FEF73FFA38A3D8
:10218800D3E90023FEF782F822462B46FEF736FAFB
:10219800374B0022FEF77CF845EC104BCDE90401E3
:1021A80012F03AF9344B9E425BEC10AB66D9DDE98C
:1021B8000423DDE90201FEF74BFB52465B46FEF7BE
:1021C8001DFA52465B46FEF763F802460B46FEF7D9
:1021D8005FF80DA3D3E90023FEF758F802460B4633
:1021E80007A1D1E90001FEF751F8019B04460D460D
:1021F800002BDFBF024601F1004314461D46EEE600
:10220800182D4454FB21F93F075C143326A6913C52
:102218009C7500883CE4377E09F7FD0DE13D023FDF
:1022280088B20175E0EF493F3B8F68B52882A43F2B
:102238005544880E55C1C93F7D6FEB0312D6D43F74
:10224800555555555555C53F82922EB1C5B8B33F22
:1022580059018D1B6C06E63FC88A599CE52A004047
:102268004B2D8A1C273A0340FFFFEF3FFFFFDF3F5C
:102278000000F03F0000E03F3233EF3F52465B463C
:1022880050465946FEF704F806460F464FF0000838
:10229800DDE90423DDE90201FEF7DAFA02460B461E
:1022A80030463946FEF7AAF9424606460F465B46CF
:1022B80040465946FEF7A2F902460B4620462946F3
:1022C800FDF7E4FF04460D4642465B465046594634
:1022D800FDF7DEFF02460B4620462946FEF7B8FA10
:1022E80002460B46FDF7D4FF02460B4612A1D1E980
:1022F8000001FDF7CBFF02460B4630463946FDF795
:10230800C5FF424604460D465B4640465946FDF722
:10231800BFFF02460B460AA1D1E90001FDF7B6FF4F
:1023280002460B4620462946FDF7B0FF02460B46FB
:1023380003A1D1E9000156E7075C143326A6913CB6
:10234800182D4454FB21E93F2DE9F84F55EC104B6B
:1023580025F00043C24AAB46934220D9C14A934272
:1023680001D80CD15CB122462B4620462946FDF700
:102378008FFF04460D4645EC104BBDE8F88FBBF1C6
:10238800000F99A3D3E9002303DD99A1D1E9000146
:10239800EDE799A1D1E90001FDF778FFE9E7B24A35
:1023A800934213D8A2F1DE7293420CD820462946F4
:1023B80093A3D3E90023FDF76BFF0022AB4BFEF795
:1023C800ADFB0028D7D14FF0FF3A28E0A84A2646AF
:1023D80025F00047934200F2BA80A2F550229342BA
:1023E80000F29C8022463B4620463946FDF750FFC6
:1023F80000229E4B4FF0000AFDF748FF04460D46A9
:1024080000224FF0804330463946FDF741FF02462F
:102418000B4620462946FEF71BFA04460D4622467F
:102428002B4620462946FEF7E9F802460B46804629
:102438008946FEF7E3F806460F4673A3D3E900235F
:10244800FEF7DCF872A3D3E90023FDF721FF32463B
:102458003B46FEF7D3F870A3D3E90023FDF718FF36
:1024680032463B46FEF7CAF86DA3D3E90023FDF7D1
:102478000FFF32463B46FEF7C1F86BA3D3E90023B2
:10248800FDF706FF32463B46FEF7B8F868A3D3E9E6
:102498000023FDF7FDFE42464B46FEF7AFF88046A7
:1024A80089463046394664A3D3E90023FEF7A6F8E7
:1024B80063A3D3E90023FDF7E9FE32463B46FEF766
:1024C8009DF861A3D3E90023FDF7E0FE32463B46C1
:1024D800FEF794F85EA3D3E90023FDF7D7FE324652
:1024E8003B46FEF78BF85CA3D3E90023FDF7CEFE4D
:1024F80032463B46FEF782F802460B4640464946BE
:10250800FDF7C6FE22462B46FEF778F8BAF1FF3FE4
:1025180002460B4646D1204629463DE70022534B4A
:1025280020463946FDF7B2FE04460D4600224F4BC1
:10253800304639464FF0010AFDF7AAFE02460B461F
:1025480020462946FEF784F904460D4667E7494ABE
:1025580093421CD20022484B20463946FDF796FE8E
:10256800002204460D46444B304639464FF0020AD5
:10257800FEF744F800223D4BFDF78AFE02460B4663
:1025880020462946FEF764F904460D4647E72246E9
:102598003B4600203949FEF75BF94FF0030A044631
:1025A8000D463CE7364B374E03EBCA0306EBCA062B
:1025B800D3E90023FDF76AFE22462B46FDF766FEA7
:1025C80002460B46D6E90001FDF760FEBBF1000F9D
:1025D80004460D46BFBF024601F1004314461D469E
:1025E800C9E600BFAFF30080075C143326A6913C10
:1025F800182D4454FB21F93F182D4454FB21F9BFF1
:102608009C7500883CE4377E11DA22E33AAD903FAE
:10261800EB0D76244B7BA93F513DD0A0660DB13F11
:102628006E204CC5CD45B73FFF8300922449C23F79
:102638000D5555555555D53F2F6C6A2C44B4A2BF3E
:102648009AFDDE522DDEAD3F6D9A74AFF2B0B33F06
:10265800711623FEC671BC3FC4EB98999999C93F7E
:10266800FFFF0F440000F07FFFFFDB3F0000F03F5B
:10267800FFFFF23F008003400000F83F0000F0BF7A
:1026880058D3010878D301082DE9F84357EC116BAA
:10269800734227F00042DFF8D8813546334342EAD7
:1026A800D373434551EC100B09D8444221F0004341
:1026B8008E468146044343EAD474444504D93246DD
:1026C8003B46FDF7E5FD15E007F1404404F58014AD
:1026D800344303D1BDE8F843FFF736BEBC1753EACD
:1026E800090904F0020444EAD17417D1022C05D078
:1026F800032C0AD041EC100BBDE8F88346A3D3E9BC
:10270800002347A1D1E90001DBE743A3D3E9002374
:1027180045A1D1E90001FDF7B9FDEBE715430DD15E
:10272800BEF1000F3CA3D3E9002303DA40A1D1E9AD
:102738000001F0E740A1D1E90001C2E7424524D1F8
:10274800934218D1022C34A3D3E900230BD0032CD5
:102758000DD0012C03D03AA1D1E90001B1E73AA18B
:10276800D1E90001D7E73AA1D1E90001A9E73AA1E7
:10277800D1E90001CFE7022CC0D0032CC5D0012C31
:102788004FF0000044D00021B4E74345C8D09B1A5D
:10279800B3F1747F4FEA235216DB31A3D3E9002348
:1027A80025A1D1E90001FDF773FD012C21D0022CF0
:1027B80023D0002C9ED02CA3D3E90023FDF766FD7F
:1027C80017A3D3E90023A6E7002F01DA3C320DDB7B
:1027D80032463B46FEF73CF8024621F0004343EC04
:1027E800102BFFF7B1FD51EC100BDEE700200021A4
:1027F800DBE701F1004319467CE71BA3D3E900237B
:10280800FDF744FD02460B4605A1D1E9000182E728
:102818004FF000416EE700BF59F3F8C21F6EA501E3
:10282800182D4454FB210940182D4454FB2109C09C
:10283800182D4454FB21F9BF182D4454FB21F93FAE
:10284800182D4454FB21E93F182D4454FB21E9BFBE
:10285800D221337F7CD90240D221337F7CD902C078
:10286800075C143326A6913C075C143326A6A13CCA
:102878000000F07F000000007FB58DED000B019B8C
:10288800254A23F00043934206D89FED211B07B049
:102898005DF804EB01F06CBD204A934204D907B0FF
:1028A8005DF804EB01F058BD02A801F08DF900F0C5
:1028B800030001280BD0022819D0F8B99DED041B9C
:1028C8009DED020B01F054FD53EC102B0AE09DED39
:1028D800041B9DED020B02F067F951EC100B024648
:1028E80001F1004343EC102B07B05DF804FB9DEDAC
:1028F800041B9DED020B01F03BFDEEE79DED041B73
:102908009DED020B012002F04FF9DDE7AFF30080E7
:102918000000000000000000FB21E93FFFFFEF7FFF
:102928002DE9FF4755EC104B25F00042B049EE0F5A
:102938008A4236D9AF498A4218D82046294696A3F2
:10294800D3E90023FEF7EAF8074620BB20462946CC
:1029580093A3D3E90023FEF7C3F8002800F0A28070
:10296800384604B0BDE8F04701F0C6BCC5F3130310
:102978002246234307D02B4620462946FDF788FCEC
:1029880004460D4602E0002E40F0038145EC104B52
:1029980004B0BDE8F087002004B0BDE8F04701F0BE
:1029A800BBBC954B9A4240F2A980944B9A4279D885
:1029B800934B20462946F70003EBC603C6F1010AEC
:1029C800D3E90023FDF762FC8E4B804689463B44E1
:1029D800AAEB060A93ED007B8DED007BDDE9002371
:1029E80040464946FDF752FC04460D4622462B4612
:1029F80020462946FDF702FE06460F466AA3D3E99C
:102A08000023FDF7FBFD6AA3D3E90023FDF73EFC95
:102A180032463B46FDF7F2FD67A3D3E90023FDF7F5
:102A280037FC32463B46FDF7E9FD65A3D3E90023B1
:102A3800FDF72CFC32463B46FDF7E0FD62A3D3E9E7
:102A48000023FDF725FC32463B46FDF7D7FD02463D
:102A58000B4620462946FDF719FC02460B4606465A
:102A68000F4620462946FDF7C9FDCDE90201BAF116
:102A7800000F5CD100224FF0804330463946FDF705
:102A880005FC02460B46DDE90201FDF7E1FE2246A0
:102A98002B46FDF7FBFB02460B4600205A49FDF783
:102AA800F5FB6DE7594B2046294603EBC60648A3BC
:102AB800D3E90023FDF7A2FDD6E90023FDF7E8FBE3
:102AC800FEF74CF88246FDF72FFD06460F4642A357
:102AD800D3E90023FDF792FD02460B46204629461E
:102AE800FDF7D4FB80468946304639463CA3D3E9F6
:102AF8000023FDF783FDCDE900016FE7444B9A42BF
:102B080010D82046294638A3D3E90023FDF7C0FB97
:102B180000223D4BFEF702F838B100223A4B20461E
:102B280029462BE74FF0000A60E782465EE7324607
:102B38003B4600204FF08041FDF7A8FB02460B46BC
:102B4800DDE90201FDF784FE02460B46DDE90001DE
:102B5800FDF79CFB42464B46FDF798FB0B460246A9
:102B680029490020FDF792FB0B466FF47F7106465A
:102B78008A4503DB344603EB0A5507E70AF57A7AF8
:102B88003046002203EB0A514FF0B873FDF736FDCB
:102B9800F6E600240025F9E6EF39FAFE422E8640D3
:102BA80051302DD5104987C0D0A4BE726937663E12
:102BB800F16BD2C541BDBB3E2CDE25AF6A56113F35
:102BC80093BDBE166CC1663F3E5555555555C53F1C
:102BD800FE822B654715F73F0000E0FE422EE63FD8
:102BE800763C7935EF39EA3D9C7500883CE4377EC0
:102BF800412E8640FFFFEF7F422ED63FB1A2F03F25
:102C0800A8D3010898D301080000F03FB8D3010801
:102C1800FFFFEF3D00000000B0EE401AF0EE601A32
:102C28009FED010B00F034BA0000000000000040E6
:102C380051EC100BB1F5801F2DE9F04F0D4687B010
:102C480023DA21F00043034305D1012007B0BDE892
:102C5800F04F01F071BB002904DA07B0BDE8F04F6E
:102C680001F07ABBC64B0022FDF7C8FC6FF03503B4
:102C78000D46C44A95420ADD02460B46FDF708FB9D
:102C880041EC100B07B0BDE8F08F0023F1E72C15DD
:102C9800C5F31305A4F2FF341C4405F5152303F608
:102CA800647303F4801383F07F5204EB1354B64B20
:102CB80082F4401242EA05010022FDF7E7FAAB1C54
:102CC80082468B46C3F313030022022B53DC0023F6
:102CD800FDF7FCFED0B1002C00F020812046FDF766
:102CE80023FC06460F4690A3D3E90023FDF786FC94
:102CF80004460D46304639468DA3D3E90023FDF737
:102D08007DFC02460B4620462946B7E78AA3D3E94D
:102D1800002350465946FDF771FC02460B46002039
:102D28009A49FDF7B3FA06460F4652465B465046A7
:102D38005946FDF763FC02460B4630463946FDF717
:102D48005DFC06460F4614B932463B46A0E02046D5
:102D5800FDF7EAFB8046894673A3D3E90023FDF714
:102D68004DFC04460D464046494671A3D3E900236D
:102D7800FDF744FCA5E04FF08043A5F5C226FDF71A
:102D880087FA02460B4650465946C5F5D725FDF742
:102D98005FFDA6F27A465135CDE90001204635435C
:102DA800FDF7C2FBDDE90023CDE902011046194613
:102DB800FDF724FC02460B46CDE90423FDF71EFC73
:102DC800804689465EA3D3E90023FDF717FC5EA37E
:102DD800D3E90023FDF75CFA42464B46FDF70EFCAB
:102DE8005BA3D3E90023FDF753FA42464B46FDF7B0
:102DF80005FC59A3D3E90023FDF74AFADDE90423CA
:102E0800FDF7FCFB56A3D3E90023CDE904014046B6
:102E18004946FDF7F3FB54A3D3E90023FDF738FA3D
:102E280042464B46FDF7EAFB51A3D3E90023FDF7E1
:102E38002FFA42464B46FDF7E1FB02460B46DDE919
:102E48000401FDF725FA002D8046894648DD002259
:102E58004E4B50465946FDF7D1FB52465B46FDF7AF
:102E6800CDFB02460B4606460F4640464946FDF74F
:102E78000FFADDE90023FDF7C1FB8046894664B9F6
:102E880002460B4630463946FDF700FA02460B4625
:102E980050465946FDF7FAF9F2E623A3D3E9002391
:102EA800DDE90201FDF7AAFB04460D4620A3D3E99C
:102EB8000023DDE90201FDF7A1FB42464B46FDF781
:102EC800E7F902460B4630463946FDF7DFF9524628
:102ED8005B46FDF7DBF902460B4620462946D9E753
:102EE80002460B4650465946FDF7D0F9DDE9002366
:102EF800FDF784FB06460F46002C3FF425AF0AA3D6
:102F0800D3E90023DDE90201FDF778FB04460D460D
:102F180007A3D3E90023DDE9020129E79FED160B9A
:102F2800B0E600BFAFF300800000E0FE422EE63FAF
:102F3800763C7935EF39EA3D555555555555D53FC8
:102F480044523EDF12F1C23FDE03CB966446C73FD0
:102F5800599322942449D23F935555555555E53FE9
:102F68009FC678D0099AC33FAF788E1DC571CC3FF4
:102F780004FA97999999D93F0000000000000000D1
:102F880000005043FFFFEF7F0000F03F0000E03FEC
:102F98002DE9F84355EC104BB5F5801F2B4626DA82
:102FA80025F00042224304D10120BDE8F84301F096
:102FB800C3B9002D03DABDE8F84301F0CDB900220A
:102FC800314B20462946FDF719FB6FF035020446C0
:102FD8000D460B462D498B420BDD22462B462046DB
:102FE8002946FDF755F941EC100BBDE8F88300229E
:102FF800F0E71815C3F31308A0F2FF3010444FEAA6
:10300800D07900EBD070FDF78FFAC9F57F730646CB
:103018000F46033348EA035545EC104BFFF708FE0B
:103028003046394612A3D3E9002359EC108BFDF73B
:10303800E5FA04460D46404649460FA3D3E9002366
:10304800FDF7DCFA02460B4620462946FDF720F933
:1030580004460D463046394609A3D3E90023FDF757
:10306800CDFA02460B4620462946BAE7AFF3008060
:10307800362BF111F3FE593D0EE526157BCBDB3FD0
:1030880000609F501344D33F00005043FFFFEF7F81
:103098002DE9F04F91B08DED001BDDE9007B55EC7B
:1030A800104B2BF0004252EA070111D1231985F485
:1030B800002252419942864B934180F0D1802046AC
:1030C8002946DDE90023FDF7E3F804460D4618E03C
:1030D80025F000487F4BA946A44698451DD815D130
:1030E800002CECD14245EAD826D1002FE7D17A4B03
:1030F800984540F2B880BBF1000FC0F22C85DDE99D
:10310800004545EC104B11B0BDE8F08F9A4204D849
:10311800C64612D1002F00F09C8009F1404909F5FC
:10312800801959EA0C09CAD1FA198BF400235B41BA
:103138009145674A9A41C0E7C646B9F1000F2BDAB4
:10314800664B9A422DD9002F00F0BA8002262046FD
:1031580025F00041BCF1000F00F0AA824FEAD973B4
:1031680003F1FF3A5AEA060C00F0BC82B2F1844F30
:1031780040F2CF805A4CA242574A40F2D78290453B
:1031880000F2CA82BBF1000F80F2CA82002011B09F
:10319800BDE8F04F01F0C0B8002F00F08180002694
:1031A800D5E74D4B9A421AD8002FF8D1BBF1804F82
:1031B8007DD04C4B3E469B45C9D1204625F0004169
:1031C800BCF1000F40F09D80424B984540F0C78409
:1031D800012E04460D4694D101F1004591E71315DF
:1031E800A3F2FF33142B1DDDC3F1340327FA03F6D2
:1031F80006FA03F3BB4228D106F00106C6F102061F
:10320800002FA4D1BBF1804FA1D1374B98459ED850
:10321800364B98456ED922462B4620462946FDF75F
:10322800EDF952E7002F40F03C82C3F1140342FA53
:1032380003F606FA03F393422D4B1DD19A421DD093
:1032480006F00106C6F10206DCE7002FA7D13E46CC
:10325800D8E708F1404303F5801323437FF447AFD1
:103268000024234D4DE7BBF1000F80F27484DDE9A3
:10327800004303F1004544E79A42E8D1BBF1000F4F
:10328800BFF63FAF0022002320462946FDF71EFC6B
:1032980078B14FEAD97011B0BDE8F04F01F04CB8E1
:1032A800134B9A42EAD0BBF1804F40F0F0813E4682
:1032B800ABE722462B4600200D49FDF7C9FA04E783
:1032C800BBF1804F02D0074B022674E702269CE729
:1032D8000000F0FF0000F07FFFFFEF3FFFFF3F43DC
:1032E8000000F0430000E03FFFFFEF5F0000501ECA
:1032F8000000F03F5CEA080C204625F0004100F091
:1033080036844FEAD97303F1FF3A56EA0A0300F00C
:10331800E981CF4B002209EA03032BB9CD4BFDF716
:103328006DF96FF034028E464FEA2E53CEF3130E2A
:10333800A3F2FF334EF07F55134445F440150C9328
:10334800C54B9E4508DDC54B9E4540F3A6820C9BA8
:10335800A5F5801501330C930024E30029466D1070
:103368000D93BF4B45F0005503EBC40305F500254D
:1033780093ED007BCDE90A0153EC172B8DED087B0B
:10338800FCF784FF80468946DDE90A23DDE9080168
:10339800FCF77EFF02460B460020B249FDF758FABB
:1033A80002460B46CDE90E0140464946FDF726F98F
:1033B800CDE90601DDE90623CDE904230023002237
:1033C800049305EB844314461D46204629469DED8B
:1033D800047B53EC172B8DED027BFDF70FF90246AA
:1033E8000B4640464946FCF751FF80468946204631
:1033F8002946DDE90823FCF749FF02460B46DDE9CB
:103408000A01FCF743FFDDE90223FDF7F7F802465E
:103418000B4640464946FCF739FFDDE90E23FDF728
:10342800EDF8DDE90623CDE9080110461946FDF758
:10343800E5F88046894674A3D3E90023FDF7DEF852
:1034480073A3D3E90023FCF723FF42464B46FDF75D
:10345800D5F871A3D3E90023FCF71AFF42464B467F
:10346800FDF7CCF86EA3D3E90023FCF711FF424621
:103478004B46FDF7C3F86CA3D3E90023FCF708FF1C
:1034880042464B46FDF7BAF869A3D3E90023FCF797
:10349800FFFE04460D4642464B4640464946FDF768
:1034A800ADF802460B4620462946FDF7A7F8044624
:1034B8000D46DDE90223DDE90601FCF7E9FEDDE959
:1034C8000823FDF79BF822462B46FCF7E1FE04464D
:1034D8000D46DDE9022310461946FDF78FF802462E
:1034E8000B46CDE90A2300225F4BFCF7D1FE2246AA
:1034F8002B46FCF7CDFE002089468046DDE90223F5
:10350800FDF77CF80022584BCDE9020140464946B8
:10351800FCF7BCFEDDE90A23FCF7B8FE02460B46C1
:1035280020462946FCF7B2FEDDE90623FDF766F8DA
:1035380004460D4640464946DDE90823FDF75EF896
:1035480002460B4620462946FCF7A2FE04460D46D5
:1035580002460B46DDE90201FCF79AFE0020894687
:10356800804635A3D3E90023FDF748F8DDE90223B7
:10357800CDE9060140464946FCF788FE02460B465F
:1035880020462946FCF782FE2DA3D3E90023FDF748
:1035980035F804460D46404649462BA3D3E9002397
:1035A800FDF72CF802460B4620462946FCF770FE2C
:1035B8000D9A2E4B1344D3E90023FCF769FECDE99D
:1035C80008010C98FCF7B0FF0D9A294B04460D46EC
:1035D800134493ED007BDDE90601DDE908238DED59
:1035E800027BFCF755FEDDE90223FCF751FE22467B
:1035F8002B46FCF74DFE002022462B468046894686
:10360800FCF744FE36E000BFEF4E454A287ECA3F2D
:1036180065DBC9934A86CD3F01411DA96074D13F3E
:103628004D268F515555D53FFFAB6FDBB66DDB3F50
:10363800033333333333E33F000000E009C7EE3F81
:10364800FD033ADC09C7EE3FF5015B14E02F3EBEEF
:103658000000F07F000040438E98030079B60B000D
:10366800F8D301080000F03F00000840D8D3010853
:10367800E8D30108DDE90223FCF708FEDDE90623AB
:10368800FCF704FE02460B46DDE90801B9E0B44B3D
:103698009B452ED145EC104B11B0BDE8F04F10F012
:1036A800BBBEBCF1000F1DD1204625F00041664687
:1036B80029F0404CAB4B9C451DD1BBF1000F05DAFE
:1036C80002460B460020A749FDF7C2F8B9F1000FE2
:1036D800BFF6FBAC08F1404808F5801858EA060820
:1036E8007FF476AD45EC104B11B0BDE8F04F00F01B
:1036F80033BE3E462BE5B8F1000F7FF42FADBBF18A
:10370800000F80F23482B9F1000F03DA731E5842B9
:103718005841C0E54046BEE5BBF1000F3FF736AD66
:10372800002011B0BDE8F04F00F0E6BD904505D28D
:10373800BBF1000F03EA0600F3DA28E5894A904551
:1037480006D9BBF1000F03EA06003FF720ADE8E712
:103758000022844BFCF79AFD04460D4672A3D3E978
:103768000023FCF74BFF72A3D3E90023CDE9020144
:1037780020462946FCF742FF00227B4BCDE9040195
:1037880020462946FCF73AFF02460B466AA1D1E9D2
:103798000001FCF77BFD22462B46FCF72FFF024673
:1037A8000B4600206E49FCF771FD8046894622468B
:1037B8002B4620462946FCF721FF02460B46404689
:1037C8004946FCF71BFF5EA3D3E90023FCF716FF6D
:1037D80002460B46DDE90401FCF758FD02460B469C
:1037E80004460D46DDE90201FCF752FD002089463A
:1037F8008046DDE90223FCF749FD02460B462046D8
:103808002946013EFCF742FD04460D4656EA0A06E3
:1038180045D09FED4D7B00265B463246B246DDE93A
:1038280000018DED027BFCF731FD42464B46FCF76B
:10383800E5FEDDE90023CDE9040120462946FCF731
:10384800DDFE02460B46DDE90401FCF721FD5B467F
:103858003246CDE9000140464946FCF7CFFE0B460B
:10386800024680468946DDE90001FCF711FD3F4B21
:1038780004460D4699428B4634DD01F13F4303F57A
:10388800E00303430ED000220023DDE90201FDF727
:1038980027F9801B18BF012079E401245DE59FED1D
:1038A8002C7BB8E72CA3D3E90023DDE90001FCF762
:1038B800EFFC06460F4642464B4620462946FCF793
:1038C800E5FC02460B4630463946FDF727F930B38A
:1038D80000220023DDE90201FDF702F9003818BFD4
:1038E800012054E421F00043214CA34244D9214B48
:1038F8000B44034309D000220023DDE90201FDF750
:10390800EFF8003818BF01200BE742464B46FCF79A
:10391800BDFCDDE90023FDF7F7F80028EBD140F204
:1039280009432DE0AFF30080000000604715F73F22
:1039380044DF5DF80BAE543E555555555555D53FAA
:10394800FE822B654715F73F000000000000F03F9E
:10395800000000000000F0BFFE822B654715973C71
:103968000000E03F0000F03F0000D03FFFFF8F4025
:10397800FFCB904000346F3F8F4A934225D91B15E7
:10398800A3F2FE334FF4801A8C48BBF1000F4AFAB9
:1039980003FA4FF00002DA44CAF30A51A1F2FF31E8
:1039A80040FA01F0C1F1140100EA0A03CAF3130A4C
:1039B80040464AF4801A4AFA01FA4946B8BFCAF1A1
:1039C800000AFCF763FC80468946002440464946C5
:1039D800DDE90023FCF75CFC0D46204666A3D3E92D
:1039E8000023FCF70BFE424606460F464B46204690
:1039F8002946FCF74BFC02460B46DDE90001FCF7C3
:103A080045FC5FA3D3E90023FCF7F8FD804689460F
:103A1800204629465CA3D3E90023FCF7EFFD0246C4
:103A28000B4640464946FCF733FC04460D46024621
:103A38000B4630463946FCF72BFC32468046894611
:103A48003B46FCF723FC02460B4620462946FCF77A
:103A58001DFC424606460F464B4640464946FCF783
:103A6800CDFD04460D464AA3D3E90023FCF7C6FD65
:103A780049A3D3E90023FCF709FC22462B46FCF7AF
:103A8800BDFD47A3D3E90023FCF702FC22462B46E1
:103A9800FCF7B4FD44A3D3E90023FCF7F7FB224667
:103AA8002B46FCF7ABFD42A3D3E90023FCF7F0FB60
:103AB80022462B46FCF7A2FD02460B4640464946E5
:103AC800FCF7E4FB04460D4602460B4640464946D1
:103AD800FCF794FD00224FF08043CDE90001204619
:103AE8002946FCF7D3FB02460B46DDE90001FCF74B
:103AF800AFFE324604460D463B4640464946FCF773
:103B08007DFD32463B46FCF7C3FB02460B4620468A
:103B18002946FCF7BBFB42464B46FCF7B7FB0B4676
:103B2800024627490020FCF7B1FB41EC100B10EED0
:103B3800903A03EB0A53B3F5801F08DA504611F0A8
:103B4800BFFB51EC100BDDE90223FFF768BB51EC1A
:103B5800100B1946F7E700240025FFF7D2BA184BD7
:103B680098453FF4B7ADB8F1000F7FF4CAAB012E0A
:103B78007FF4ABAAFFF7C5BA00000000432EE63F6A
:103B8800EF39FAFE422EE63F396CA80C615C20BE84
:103B9800D0A4BE726937663EF16BD2C541BDBB3E4B
:103BA8002CDE25AF6A56113F93BDBE166CC1663F29
:103BB8003E5555555555C53F0000E03F0000F0FF04
:103BC8000000F03F000000002DE9F04F5BEC10AB67
:103BD8002BF00048C44B8DB004469845CDF810B082
:103BE80007D80022002380ED000BC0E9022300253E
:103BF80028E0BE4B984578D8049B5046BC4D5946A2
:103C0800002BABA3D3E9002338DDFCF73FFBA84525
:103C180006460F461AD0A8A3D3E90023FCF736FBC3
:103C280002460B468046894630463946FCF72EFB4D
:103C3800A1A3D3E900230125FCF728FBC4E90089E7
:103C4800C4E9020128460DB0BDE8F08F9CA3D3E972
:103C58000023FCF71BFB06460F469BA3D3E9002372
:103C6800FCF714FB02460B46804689463046394627
:103C7800FCF70CFB94A3D3E90023DCE7FCF708FB73
:103C8800A84506460F4618D08BA3D3E90023FCF7B6
:103C9800FFFA02460B468046894630463946FCF70D
:103CA800F5FA85A3D3E90023FCF7F2FA4FF0FF35C4
:103CB800C4E90089C4E90201C4E781A3D3E9002368
:103CC800FCF7E6FA06460F467FA3D3E90023FCF784
:103CD800DFFA02460B468046894630463946FCF7ED
:103CE800D5FA79A3D3E90023DEE7824B984500F2A1
:103CF800CE802BF00047504675A3D3E90023394600
:103D0800FCF77CFC00227C4BFCF7C2FAFCF726FF90
:103D18000546FCF709FC02460B46CDE9022364A3DD
:103D2800D3E90023FCF76AFC02460B4650463946A5
:103D3800FCF7ACFA82468B465FA3D3E90023DDE9A2
:103D48000201FCF75BFC02460B4606460F4650464E
:103D58005946FCF79BFA1F2D05DC6A1E674B53F882
:103D68002230434508D14FEA28530593C1F30A533B
:103D7800C3EB1853102B02DCC4E9000139E050A34F
:103D8800D3E90023DDE90201FCF738FC06460F46BB
:103D980002460B4650465946FCF778FA02460B464F
:103DA8008046894650465946FCF770FA32463B46EB
:103DB800FCF76CFA06460F4643A3D3E90023DDE976
:103DC8000201FCF71BFC32463B46FCF75FFA024651
:103DD8000B4606460F4640464946FCF757FA059AF1
:103DE800C1F30A53D31A312B20DCC246CB46C4E9AF
:103DF8000001D4E900895046594642464B46FCF733
:103E080045FA3B463246FCF741FA049B002BC4E9CD
:103E18000201BFF617AF09F10043C4F80080A060A3
:103E2800636001F10043E3606D420BE72AA3D3E925
:103E38000023DDE90201FCF7E1FB06460F460246D6
:103E48000B4640464946FCF721FA82468B46024615
:103E58000B4640464946FCF719FA32463B46FCF702
:103E680015FA06460F461EA3D3E90023DDE9020131
:103E7800FCF7C4FB32463B46FCF708FA06460F46F9
:103E880002460B4650465946FCF700FA74E71C4BAD
:103E9800984537D952465B4650465946FCF7F6F9DD
:103EA800C4E90201C4E90001A1E600BFAFF3008044
:103EB80000004054FB21F93F3163621A61B4D03DE0
:103EC8000000601A61B4D03D7370032E8A19A33BB9
:103ED80083C8C96D305FE43F0000002E8A19A33BF8
:103EE800C14920259A837B39FB21E93F7BD90240D0
:103EF800FB21F93FFB2139410000E03F24E00108A4
:103F0800FFFFEF7F4FEA285550460DF13009A5F223
:103F18001645A8EB05514FF003080F46FCF71EFEA7
:103F2800FCF702FB02460B4650463946CDE906230C
:103F3800FCF7ACF90022204BFCF760FB0F46064665
:103F4800FCF70CFEFCF7F0FA02460B463046394601
:103F580000260027CDE90823FCF798F90022164B24
:103F6800FCF74CFBCDE90A0132463B46C24608F154
:103F7800FF3879E90201FCF7A9FD0028F4D10F4BBD
:103F88002A46214606A8019302230093534600F0CF
:103F9800AFFA049B0546002BBFF654AED4E90021C6
:103FA80001F10043C4E90023D4E9022101F10043EF
:103FB800C4E9022338E700BF00007041A4E001080B
:103FC8007FB58DED000B019B254A23F000439342FA
:103FD80007D800209FED201B07B05DF804EB00F028
:103FE800E3BD204A934204D907B05DF804EB00F022
:103FF800B3B902A8FFF7E8FD00F00300012810D0CC
:10400800022815D008BB01209DED041B9DED020B75
:1040180000F0CAFD53EC102B43EC102B07B05DF8F1
:1040280004FB9DED041B9DED020B00F0A1F9F1E7E7
:104038009DED041B9DED020B012000F0B5FD51EC38
:10404800100B024601F10043E6E79DED041B9DEDD0
:10405800020B00F08DF9F2E70000000000000000FC
:10406800FB21E93FFFFFEF7F7FB58DED000B019B43
:10407800154A23F00043934207D801209FED101BF7
:1040880007B05DF804EB00F047BE104A934204D92C
:1040980007B05DF804EB00F05FB902A8FFF794FDE4
:1040A800400000F002009DED041BC0F101009DEDF1
:1040B800020B00F031FE07B05DF804FBAFF300809F
:1040C8000000000000000000FB21E93FFFFFEF7F38
:1040D80010EE103A33F0004210B52DED028B06D1E8
:1040E8000120BDEC028BBDE8104011F06DB9002B2A
:1040F80005DABDEC028BBDE8104011F073B9B3F1DD
:10410800FF4F06DB30EE008AB0EE480ABDEC028BAA
:1041180010BDB3F5000F6049BBBFDFED607A6FF0EB
:104128001802002260EE277AB8BF17EE903AF7EE31
:10413800007ADC15C3F316037F3C1944144401F4D8
:10414800000282F07E5204EBD15403F10F011A43AE
:1041580007EE102A524A0A4037EE678AB2BBB5EE1C
:10416800408AF1EE10FA0FD1002C00F08C8007EE97
:10417800904A9FED4C0A9FED4C7AF8EEE77A27EECD
:10418800808A07EE878ABFE741A1D1E90001FCF7E1
:104198002DFDB6EE007A07EE900A07EEC87A68EEB3
:1041A800087A27EE277A14B938EE478AACE707EE83
:1041B800904ADFED3C6AF8EEE77A07EEE67A37EEEA
:1041C800488A9FED397A17EE878A9DE7F0EE007AE4
:1041D8009FED365ADFED364A364A78EE277A1A448A
:1041E800C3F5571388EE276A07EE904A03F5227342
:1041F8001343F8EEE76ADFED307A002B66EE065AD5
:1042080025EEA57A07EE275ADFED2C7A45EE077AD8
:104218009FED2B5A07EE875ADFED2A7A47EE274A99
:10422800DFED297A44EE877A67EE877A45EE257ABC
:104238001ADDB6EE007A28EE077A27EE087A77EECE
:10424800877A67EE867A14B937EE677AACE79FED1E
:10425800156A46EE867A37EE677A37EE488ADFEDDA
:10426800127A16EEA78A4FE778EE677A67EE867AB3
:1042780014B938EE678A47E79FED0A7A46EEC77A9F
:1042880037EEC88AEBE79FED118A3DE7AFF3008070
:10429800555555555555D53F20FB4A000000004C53
:1042A800F0FF7F00D1F717378071313F25333A3E51
:1042B800298E633E305CCFFF9788173E2549923E92
:1042C800ABAA2A3F4FD01C3ECDCCCC3E000000000C
:1042D80008B5FEF7ADFC06A3D3E9002351EC100B9B
:1042E800FCF7B6FA41EC100B08BD00BFAFF3008035
:1042F800EF39FAFE422EE63F10B19FED030B7047EF
:104308009FED030B704700BF000000000000008015
:10431800000000000000000010B19FED030B704783
:104328009FED030B704700BF000000000000F0FF86
:10433800000000000000F07F10B19FED030B7047F4
:104348009FED030B704700BF000000000000F0FF66
:10435800000000000000F07F08B511F00FF89FED95
:10436800020B08BDAFF30080000000000000F87FDA
:104378002DE9F74F59EC108B29F00046B6F1795F1B
:104388008DED001BC0F0888042464B4640464946AA
:10439800FCF734F904460D4600224F4BFCF72EF982
:1043A80082468B46204629463DA3D3E90023FCF7E5
:1043B80025F93DA3D3E90023FBF76AFF22462B46E4
:1043C800FCF71CF93AA3D3E90023FBF75FFF224669
:1043D8002B46FCF713F938A3D3E90023FBF758FF62
:1043E80022462B46FCF70AF935A3D3E90023FBF74D
:1043F8004DFF22462B46FCF701F933A3D3E90023EE
:10440800FBF746FF22462B46FCF7F8F822462B46D8
:10441800FCF7F4F804460D4640464946DDE900231A
:10442800FCF7ECF80B46024629462046FBF72EFF20
:104438002A4B804689469E4210D802460B46504673
:104448005946FBF723FF02460B4600202449FBF799
:104458001DFF41EC100B03B0BDE8F08F214B002489
:1044680000201F499E42224694BFA6F500151E4D06
:104478002B46FBF70BFF224606460F462B465046B7
:104488005946FBF703FF42464B46FBF7FFFE024641
:104498000B4630463946DAE79FED0D0BDBE700BFE8
:1044A800D43888BEE9FAA8BDC4B1B4BD9EEE213E99
:1044B800AD529C804F7E923E9015CB19A001FA3EDA
:1044C8007751C1166CC1563F4C5555555555A53FAA
:1044D800000000000000F03F0000E03F3233D33F0F
:1044E8000000F03F0000E93F0000D23F000000005C
:1044F8002DE9F04F2DED028BADF51B7D12F1140F58
:104508004FF000050993A8BFD41EBD4BB8BF0024C7
:10451800019122AEA6990A9053F821300493099B81
:1045280003F1FF330693A4BF182394FBF3F46FF051
:10453800170304FB033303EB020B049B069A03EBFC
:104548000208A71AA79B9FEDAA8B03EB870945458D
:1045580013DD22AA099B0DF5E47A4FF0000802EB5F
:10456800C305049B984530DCDDF828902F460026CB
:104578009FED9F7B8DED027B1BE0EF4207D459F83E
:104588002500FBF7D1FF0135E6E80201DFE751EC32
:10459800180BF8E7D7E90023F9E802010136FCF720
:1045A8002DF802460B46DDE90201FBF771FECDE965
:1045B8000201069B083F9E42ECDD08F10108083520
:1045C8009DED027BAAEC027BCBE7049B0EAADDF8EB
:1045D800109002EB83030C93A79B03EB84030B93CC
:1045E8004FEAC9030DF1380A4F460D939AABD046EE
:1045F80003EBC90313ED287B72AB03EBC9068DED02
:10460800027B002FA6F1080677DC58469DED020BC9
:1046180010F056FE00224FF07F5355EC104B204609
:104628002946FBF7EBFF41EC100B11F0D1FB002200
:10463800744B51EC100BFBF7E1FF02460B4620468A
:104648002946FBF723FE0D460446FCF787FA089037
:10465800FBF76AFF02460B4620462946FBF716FE83
:10466800BBF1000F06460F466BDD09F1FF310EABBB
:10467800CBF11800089C53F8213043FA00F2144497
:1046880082409B1A0EAA089442F82130CBF11702F7
:1046980013410293029B002B62DD089B00226FF0FE
:1046A8007F40013314460893914500F3B780BBF16E
:1046B800000F07DDBBF1010F00F0C980BBF1020F4D
:1046C80000F0D080029B022B4AD132463B460020A4
:1046D8004D49FBF7DBFD06460F46002C40D05846F7
:1046E8009FED450B10F0ECFD3046394653EC102B8E
:1046F800FBF7CCFD06460F4632E00022434B013F54
:10470800DDE90201FBF77AFFFCF728FAFBF70CFF5B
:1047180000223F4B04460D46FBF770FF02460B464E
:10472800DDE90201FBF7B2FDFCF718FA294648F863
:10473800040B2046D6E90023FBF7AAFDCDE90201C8
:104748005FE706D109F1FF330EAA52F82330DB15D3
:104758009FE700222F4BFCF7D7F9002843D102909E
:104768000022002330463946FCF7B0F9002800F053
:10477800CB8009F1FF33002204998B427ADA002AB0
:1047880000F0958009F1FF390EABABF1180B53F827
:104798002930002BF6D058464E464FF0000ADFF875
:1047A8006CB09FED150B10F08BFD09F1010372AA97
:1047B8004FEAC30802EBC30755EC104B002E80F2FA
:1047C800DB804C46002CC0F20981134B4FF0000AE5
:1047D8004FF0000B00261F4672ABA9EB040503EB54
:1047E800C4030693EEE00223029356E7AFF300807A
:1047F8000000000000000000000000000000F03F82
:1048080064E50108000020400000F03F0000703E11
:10481800000070410000E03F08D40108514651F8FB
:10482800043B54B96BB10132C3F18073914541F82F
:10483800043C0ADD0B680AF10801C31A41F8043C7C
:10484800012301328A461C462EE701242FE709F18D
:10485800FF320EAB53F82230C3F316030EA941F80A
:1048680022302FE709F1FF320EAB53F82230C3F3A1
:104878001503F3E70EA951F82310013B0A437BE720
:10488800013453F8042D002AFAD00D9B22AA09F10D
:1048980001074C4403F51A730DEB0305099B4B44C0
:1048A800983D02EBC306BC4204DAA14698E60C9B8D
:1048B8000124E6E70B9B4FF0000853F82700FBF7AD
:1048C80033FEDDF828909FEDAC7BE6E80201B246A6
:1048D8008DED027B069B984505DD01379DED027B3A
:1048E800A5EC027BDFE77AE90223F9E80201FBF78E
:1048F80085FE02460B4608F10108DDE90201FBF7D7
:10490800C7FCCDE90201E5E7CBF1000047EC106BED
:1049180010F0D6FC00229A4B55EC104B2046294645
:10492800FCF7F2F800B30022964B20462946FBF725
:1049380065FE0BF1180BFCF711F90646FBF7F4FDC1
:1049480000228F4BFBF75AFE0B46024629462046AB
:10495800FBF79CFCFCF702F90EAB43F8290009F1C0
:10496800010943F8296016E720462946FCF7F6F8BE
:104978000EAB43F829000EE70EAB53F82600013EB4
:10498800FBF7D2FD22462B46FBF738FE52465B4624
:1049980067E9020120462946FBF730FE04460D462A
:1049A8000CE706990136F1E802230691F7E80201BF
:1049B800FBF724FE02460B4650465946FBF768FCB7
:1049C80082468B46049B9E4201DCB542E9DA4AAB3B
:1049D800013C03EBC505C5E900ABF3E6A69B022B3A
:1049E8000BDC002B38DC5AD0089B03F007000DF5D0
:1049F8001B7DBDEC028BBDE8F08FA69B032BF3D18A
:104A080008F51A73CA460DEB0304A4F5A4742546E9
:104A1800BAF1000FA5F1080567DC4D46012DA4F198
:104A2800080400F383804AAB0020002103EB08044C
:104A3800B9F1010F00F39880029BDDE94A78DDE9BE
:104A48004C56002B40F0A080019BC3E90078C3E9D5
:104A58000256C3E90401C7E74AAB4C4600200021CF
:104A68009844002C32DA029B002B35D0024601F123
:104A78000043019C4CADC4E90023012402460B46C7
:104A8800DDE94A01FBF702FCA14528DA029B13B1D4
:104A980001F100431946019BC3E90201A4E74AABAF
:104AA800002000219844B9F1000F08DA029B13B1E5
:104AB80001F100431946019BC3E9000194E778E935
:104AC800022309F1FF39FBF7E3FBECE778E902235E
:104AD800013CFBF7DDFBC4E702460B46C9E7F5E8F6
:104AE80002230134FBF7D4FBCEE795ED007B0AF1F6
:104AF800FF3A8DED047B95ED027BDDE9040153EC73
:104B0800172B8DED067BFBF7C3FB02460B460646CB
:104B18000F46DDE90401FBF7B9FBDDE90623FBF7E6
:104B2800B7FBC5E90067C5E9020171E794ED007BB1
:104B3800D4E902AB013D52465B4651EC170B8DEDB3
:104B4800047BFBF7A5FB02460B4606460F46DDE94C
:104B58000401FBF79BFB52465B46FBF799FBC4E954
:104B68000067C4E9020159E774E9022309F1FF3932
:104B7800FBF78EFB5CE700BF0000000000000000B0
:104B8800000070410000703E019B08F10044019A4A
:104B98001F605C609D6006F100431061D36001F105
:104BA8000043536120E700BF2DE9F04F5BEC10ABE9
:104BB8002BF0004385B08046B3F1795F8DED001B83
:104BC80004D205B0BDE8F04F16F0D5BC52465B469E
:104BD80050465946FBF712FD04460D4602460B4661
:104BE80050465946FBF70AFD06460F462046294619
:104BF8003CA3D3E90023FBF701FD3CA3D3E9002341
:104C0800FBF744FB22462B46FBF7F8FC39A3D3E914
:104C18000023FBF73DFB22462B46FBF7EFFC37A3AF
:104C2800D3E90023FBF732FB22462B46FBF7E6FCD1
:104C380034A3D3E90023FBF72BFBCDE90201B8F13C
:104C4800000F17D102460B4620462946FBF7D6FC33
:104C58002EA3D3E90023FBF719FB32463B46FBF7AB
:104C6800CDFC52465B46FBF713FB41EC100B05B03D
:104C7800BDE8F08F00221A4BDDE90001FBF7BEFC0E
:104C88008046894630463946DDE90223FBF7B6FC03
:104C980002460B4640464946FBF7F8FA22462B46A1
:104CA800FBF7ACFCDDE90023FBF7F0FA04460D4600
:104CB8003046394608A3D3E90023FBF79FFC024698
:104CC8000B4620462946FBF7E1FA02460B465046BA
:104CD8005946FBF7DBFAC8E7495555555555C5BF41
:104CE8000000E03F7CD5CF5A3AD9E53DEB9C2B8AB2
:104CF800E6E55A3E7DFEB157E31DC73ED561C119B1
:104D0800A0012A3FA6F810111111813F49555555A8
:104D18005555C53F000000002DE9F04F5BEC10AB86
:104D28002BF00047D84B89B006469F42CDF808B013
:104D380059EC118B59D850465946FBF70FFF0546D9
:104D4800002878D1731C51460B433B430CD1524683
:104D58003B460020CD49FBF77BFD82468B464BEC5A
:104D680010AB09B0BDE8F08F012EF8D042464B4693
:104D780050465946FBF78CFA02460B460F46002070
:104D8800C349FBF765FD2E462C46CDE90001DDE958
:104D98000023304652461D4639465B46FBF776FAF5
:104DA80002460B4640464946FBF770FA32462B4608
:104DB800FBF724FC324682468B462B463046394662
:104DC800FBF71CFC0022B14BFBF762FA02460B46CC
:104DD80050465946FBF75CFADDE90023FBF70EFC69
:104DE80022462B46FBF754FAB7E7AA4B9F4222D933
:104DF800029B002B05DA0BF100439B4609F10043A7
:104E0800994652465B4682A1D1E90001FBF73EFA7A
:104E180004460D4642464B464FF000084FF0000945
:104E28007DA1D1E90001FBF731FA22462B46FBF7B9
:104E38002FFA82468B4652465B4650465946FBF748
:104E4800DDFB02460B46CDE90023FBF7D7FB044602
:104E58000D4650465946DDE90023FBF7CFFB70A30A
:104E6800D3E90023CDE9040120462946FBF7C6FB18
:104E78006DA3D3E90023FBF70BFA22462B46FBF779
:104E8800BDFB6BA3D3E90023FBF702FA22462B46AE
:104E9800FBF7B4FB68A3D3E90023FBF7F9F9224633
:104EA8002B46FBF7ABFB66A3D3E90023FBF7F0F92E
:104EB80022462B46FBF7A2FB63A3D3E90023FBF7AB
:104EC800E7F9DDE90023FBF799FB61A3D3E90023A8
:104ED800CDE9060120462946FBF790FB5EA3D3E9FE
:104EE8000023FBF7D5F922462B46FBF787FB5CA38B
:104EF800D3E90023FBF7CCF922462B46FBF77EFBD0
:104F080059A3D3E90023FBF7C3F922462B46FBF745
:104F180075FB57A3D3E90023FBF7BAF922462B46C2
:104F2800FBF76CFB54A3D3E90023FBF7B1F9024666
:104F38000B46DDE90601FBF7ABF9DDE90423FBF7D6
:104F48005DFB42464B46FBF7A3F9DDE90023FBF77F
:104F580055FB42464B46FBF79BF904460D4648A3D2
:104F6800D3E90023DDE90401FBF748FB22462B4681
:104F7800FBF78EF90B460246CDE90001504659462B
:104F8800FBF786F9434B04460D469F4240F2848066
:104F98003046FBF7C9FA2246804689462B4620460A
:104FA8002946FBF72BFB06460F4642464B46204652
:104FB8002946FBF76DF902460B4630463946FBF7A2
:104FC80047FCDDE90023FBF761F902460B46504632
:104FD8005946FBF75BF902460B46FBF759F90246BF
:104FE8000B4640464946FBF751F9029B04460D46DD
:104FF8004FEAA37A0AF0020ACAF10100FBF794FA11
:1050080002460B4620462946FBF7F8FAA5E600BFFC
:10501800182D4454FB21E93F075C143326A6813C34
:10502800D47ABF74702AFB3EE9A7F0320FB8123F5A
:1050380068108D1AF726303F1583E0FEC8DB573F0E
:1050480093846EE9E326823FFE41B31BBAA1AB3FCE
:10505800735360DBCB75F3BEA69237A0887E143FEE
:105068000165F2F2D844433F280356C9226D6D3FCB
:1050780037D60684F464963F7AFE10111111C13FA9
:10508800635555555555D53FFFFF2F3E0000F03F5E
:105098000000F0BF2794E53F012E33D04FF0000801
:1050A800894602460B46002018494446CDE9028944
:1050B800FBF7CEFB52460F465B4606460D4640467A
:1050C8004946FBF7E3F802460B46DDE90001FBF72A
:1050D800DDF842463B46FBF791FA424682468B464C
:1050E8003B4640464946FBF789FA0022084BFBF746
:1050F800CFF802460B4650465946FBF7C9F83246E8
:105108003B466BE682468B4629E600BF0000F0BFAF
:105118000000F03F30B5104A136803F07043136085
:10512800C9B10E49956911F8103001EB40014C786E
:10513800012101FA03F0284304F1100501FA05F5ED
:10514800284390618B408C40106801FA03F3A1401A
:105158000B430343136030BD0014024214E60108F8
:1051680038B5304B304C1B78002B4CD02F4A236875
:105178002F4DD35C2F4ADB0012781341072B0BD835
:10518800DFE803F00416232E363E3E3E2A4A236803
:10519800136803F0704313602B6801332B60682297
:1051A8002368013393FBF2F102FB1133236038BD0E
:1051B80017232068296891FBF3F203FB1211B1FA57
:1051C80081F14909FFF7A6FFE6E70F232068296860
:1051D80091FBF3F3C3EB0313CB1A59425941F1E79F
:1051E80005232068296891FBF3F303EB8303F3E7B6
:1051F80003232068296891FBF3F303EB4303EBE7F0
:1052080001212068DEE7206822680C492368D21053
:10521800895C03F00703194101F00101FFF77AFFE8
:10522800BDE700BFFC1F002014170020C01100209C
:10523800101700204C0300200014024228120020FE
:1052480030B5284B85B002AD044693E8030085E8E5
:105258000300254802698168136823F0040313607A
:105268000B684FF4003202219847204B0220D3F8F4
:10527800A82042F00202C3F8A820D3F8A82002F020
:1052880002020092009AD3F8A82042F48012C3F8D0
:10529800A820D3F8A83003F480130193019B09F0E8
:1052A80035FF09F055FF34B92146284610F0E5FDD1
:1052B800002005B030BD0121284610F0DEFD052C88
:1052C800F6D0023CE4B2022C96BF094B3020185DA0
:1052D80009F012FF09F024FF0446002009F016FF28
:1052E8002046E6E7A0D00108BCB80108000C024639
:1052F80000E6010803460A4A30B500F108051446DD
:1053080018685968083303C4AB422246F7D1002213
:10531800186820601B792371024B1A7030BD00BFDA
:1053280028120020FC1F00200146682208B5034807
:1053380015F0C3FF0122024B1A7008BDC0110020EE
:10534800FC1F0020014B1870704700BF4C03002061
:1053580030B585B0154CA56820462B6898472B6B4F
:105368006268D3B1204698470A210023104AA0FB5F
:105378000101FBF775FE0F4B009001930023CDF858
:1053880008D00393A368009962681268914206D90D
:10539800094811F0AAF905B030BD5068E4E769463C
:1053A800DB69024898470028F5D0F1E7B8B9010849
:1053B80040420F0069510008DCE501080148836894
:1053C8005B681847B8B901082423094A0949891AAA
:1053D800B1FBF3F1031E08DD994206D3013B1BB272
:1053E80003EBC30302EB830070470020704700BF44
:1053F8000CB7010840BC010813B507480469836865
:1054080001A95B68984720B9236801985840C0F300
:10541800403002B010BD00BFE4B701082DE9F041EB
:10542800ADF51A7D02A9032001F00CFA014630B14E
:10543800614811F05AF90DF51A7DBDE8F081102385
:10544800029807AA11F0E1FC014608B15B48F0E7B1
:105458009DF82330012B05D142F24132BDF82810C6
:10546800914203D0564811F040F900230022554ECE
:105478003260554A1168BA2907BF544CD2E901581D
:105488004AF2503848F698651ABF514F514C2F19B7
:105498001BB19DF82A305A073BD40D2100234E48F2
:1054A8008DF814100490ADF81630026983680193E2
:1054B800136823F400531360019B484A1B689847FC
:1054C8004FF4FA60002114F0ACFE04A8FFF794FF33
:1054D800D8B9FFF73DFF0820FFF734FF04A8FFF70E
:1054E8008BFF38B34146384610F0DEFC00216422B9
:1054F8000CA80B9115F008FF0BA8FFF715FF00216A
:10550800642014F08EFEFFF759FF9DF82A301B0720
:105518001AD49DF82A40099D14F0020418D0304886
:10552800304B816898474FF0FF314FF0FF3014F04F
:1055380078FEF8E72946204610F0B6FCCEE74FF48F
:105548007A70002114F06DFE3368002BF7D0E0E785
:1055580021464FF40F720BA815F0D6FE224B4FF0E0
:1055680001620C93214BCDE904440D93204BCDE906
:1055780097250E9301231F498DF840308DF8103080
:1055880003AA04AB0BA8069402F096FB044610B1DC
:10559800014619484DE7039818498C3002F05EFB24
:1055A800014618B9164811F0A0F844E722460398B6
:1055B80002F0E4FB3FE700BF3DF101085FF101089D
:1055C8007DF101080064034000000D0810000D087B
:1055D800D0F1010820950208E4B701082000010075
:1055E80074110020110010085B720108857201080F
:1055F800997201089CEC010894F101084E250308F2
:10560800B2F101087FB50BAB05930393054B02225A
:10561800029300231846CDE9003300F087FE07B057
:105628005DF804FBB82303082DE9F04F91B000930F
:1056380002F004030293C2F3C20301338407054650
:105648000E46DDF868800392059340F0BB81041D87
:1056580030B1072909D86FF01B0011B0BDE8F08FF1
:1056680001F007063444C6F10806009B4FF0000914
:105678004FF0040A591E4FF0FF334F460193CB46B3
:105688005346CDF810900DB1009820600598002879
:1056980000F3E8809848009A824203D397488242F0
:1056A800C0F0E080039AA4EB050E92074FEA9E0033
:1056B80000F103810F2F00F2B180002D00F0058169
:1056C80007F140020DEB020C019A0CF8200C0CF8C3
:1056D800102C049801300490E7E07A285DD84B2814
:1056E8000ED8472859D829282DD8252852D054D83B
:1056F80020287AD02338D0F1000B4BEB000B74E054
:105708004C382E2849D8DFE800F070484848484807
:105718004848484848484B484848484848484859ED
:10572800484B4B595959704B6D487048184B18489D
:1057380048827F4B48484B487F0000204FF0000BC1
:105748004FF0040A38E001222A38C0B202FA00F009
:1057580010EA0E0F49D110F0625C2FD110EA020B4B
:1057680043D06046013C5444B4FBFAF40AFB04F409
:10577800002D61D0A3EB050CA444B4453FF66BAFF4
:10578800002868D1042B47D158F8043B2360042330
:1057980004342AE0019A013A01924FF0000B24E008
:1057A80011F8010C6C2834D1002011F8023C834612
:1057B8006C2BC5D14FF0080A5346D3E708F1070808
:1057C80028F00708073424F00704F8E802AB35B1DD
:1057D80006982044B0423FF63EAFC4E900AB4FF014
:1057E800000B08344FF0080A534611F8010F00283F
:1057F80078D0BBF1000F7FF470AF2528F5D14FF0BA
:10580800010B019B013301934FF0040AECE7584662
:1058180094E700208346A5E7082B02D06FF0150017
:105828001BE708F1070828F00708B8EC027B84EDAD
:10583800007B08230834D8E768B9042B02D108F1A3
:105848000408A4E7082BE9D108F1070828F007089D
:1058580008F10808EDE705980138059058F8040B99
:10586800009010E7039A900720D54FF0010CA4EBA5
:10587800050E4FEA9E00BEF5007FCFD20F2FCDD880
:10588800F5B107F140020DEB020E019AC0B20EF815
:10589800200C0EF8102CBCF1000F3FF41AAF60F08A
:1058A8007F000EF8200C09F101090137C5F1080243
:1058B8004FF6DA7E0434069297E74FF0000CDAE7E9
:1058C800BCF1000F01D00136EFE7029A0236002A38
:1058D800EBD10098CDE90631FBF70AFCDDE906318A
:1058E8000644E2E7631BB3F5806F97D245B9A6F18A
:1058F8000804E018B1E600BF94B501086465030820
:10590800029A9B0828602B709DF81030C2B1EB708A
:1059180085F80290B9F1000F05D0002208A8C5F15A
:10592800010C97420ED14FF0000AC5F101030DF1A9
:10593800200801930DF1300B574512D1601B8CE6FE
:105948006B70E5E710F8013B190608D50CEB040E5F
:10595800B64503F07F033FF67EAE04F8013B013203
:10596800DFE7B9F1000F03D098F90020002A17DB10
:10597800029BD3B11AF80B2004F8012B0022019BDB
:1059880018191044B0423FF666AE98F80000009926
:1059980004F8010B2046039215F08FFC039A144477
:1059A8000AF1010A08F10108C6E798F8002055F83D
:1059B80022300093029B009845F82230FBF798FBB1
:1059C800421CDCE76FF00D0047E600BF2DE9F04F01
:1059D8009BB0DDF890B00993CBF3C003044616469C
:1059E800884690F802A00B9341B9457800780AEBF5
:1059F80080002044454516D8A0EB0408E3780A93B4
:105A0800BAF1000F02D01BF0010F15D10A9B002B31
:105A180039D11EB141462046099AB0474546284625
:105A28001BB0BDE8F08F471C3846FBF761FB01301F
:105A3800384408F10108DDE7227863680692089384
:105A4800069B92000C9204EB8301002E40F0E2804A
:105A58000F460026454601EB0A08474522D017F8AD
:105A6800013B069154F82300FBF742FB259B06995E
:105A7800013033B1269B9E423EBF259B23F816007A
:105A880001360544E9E71BF0020FC2D023781F4610
:105A980006939B000C93636804EB87010893002E20
:105AA80051D145461BF0050F01EB0A070CBF4FF01B
:105AB800020A4FF0010A0A9B07EB43090BF00203A5
:105AC80006934F45ABD017F8021B17F8013C54F862
